S0100000636F707920626D702E73726563FA
S113000045C0000061C000005FC000005DC000008A
S11300105BC0000059C0000057C0000055C000007C
S113002053C0000051C000004FC000004DC000008C
S11300304BC0000049C0000047C0000045C000009C
S113004043C0000041C000003FC000003DC00000AC
S11300503BC0000039C0000037C0000035C00000BC
S113006033C0000031C000002FC000002DC00000CC
S11300702BC0000029C0000027C0000025C00000DC
S113008023C0000021C000001FC0000011241FBEB7
S1130090CFEFD0E1DEBFCDBF13E0A0E0B1E0EAE6F0
S11300A0F2E100E00BBF02C007900D92AA33B10742
S11300B0D9F723E0AAE3B3E001C01D92A137B20748
S11300C0E1F7F0D10C9433099BCF84EA8093740058
S11300D080913A03882319F080E091E0E7D5E4E7C2
S11300E0F0E080818823ECF7E1E7F0E08081887F0D
S11300F08830E1F780913A03882319F082E391E094
S1130100D5C5089584E98093740080913A038823C7
S113011019F083E591E0CAC508958093730094E8CB
S11301209093740090913A03992359F01F928F93FE
S113013087E791E09F938F93A6D50F900F900F9030
S11301400F90E4E7F0E080818823ECF78091710060
S1130150887F883129F080917100887F803439F458
S113016080913A03882319F080EB91E09FC50895AC
S11301708093730090913A03992359F01F928F93BF
S113018082ED91E09F938F937ED50F900F900F9007
S11301900F9084E880937400E4E7F0E08081882382
S11301A0ECF780913A03882381F080EF91E07ED5CB
S11301B080917100887F883251F480913A038823BA
S11301C031F082E391E072C5089580917100089541
S11301D0CF93DF93EC0180913A03882319F089E1EE
S11301E092E064D5CD2B21F484E88093740003C09D
S11301F084EC80937400E4E7F0E080818823ECF7DA
S113020080913A03882369F0809173001F928F9341
S113021080E392E09F938F9336D50F900F900F90C9
S11302200F9080917300DF91CF91089584EA8093B9
S11302307400E4E7F0E080818823ECF7E1E7F0E084
S11302408081887F8031E1F70895CF92DF92EF9229
S1130250FF923BDF8EEE61DF84EF8ADF8EE288DF80
S113026051DF84E694E00197F1F700C000002DDF30
S11302708EEE53DF86EF7CDF87EF7ADFD7DF8FEEFA
S11302804CDF81E090E0A4DFC82ED12CDC2CCC2400
S11302900D2C000CEE08FF0880E090E099DFC82ADE
S11302A031DFC701B601FF90EF90DF90CF90089542
S11302B08F929F92AF92BF92CF92DF92EF92FF9272
S11302C00F931F93CF93DF93C0DFCBE3D3E028A139
S11302D039A17B018C01E21AF30A01091109A80171
S11302E09701AE8DBF8DA2D49FD320E030E040E0D3
S11302F058E326D466D36B017C016CA57DA5072E3B
S1130300000C880B990B90D320E030E040E055E4DA
S113031017D44B015C016EA57FA5CB01770FAA0B07
S1130320BB0BBC01CD016C0D7D1D8E1D9F1D7CD3AF
S11303309B01AC01C501B401DCD243D3C60ED71E68
S1130340E81EF91ECEA2DFA2E8A6F9A6C701B601EF
S1130350685F7F4F8F4F9F4F67D320E030E040E8C6
S11303605DE3EED32ED3DF91CF911F910F91FF90D8
S1130370EF90DF90CF90BF90AF909F908F900895B3
S1130380BF92CF92DF92EF92FF920F931F93CF937E
S1130390DF93CDB7DEB766970FB6F894DEBF0FBE16
S11303A0CDBF04E213E0CE0101967C010F2EFAE3E7
S11303B0CF2EF3E0DF2EF02D88DE8EEEAEDEF801D8
S11303C0B08081810E5F1F4FD3DE8B2DD1DE2EDFF7
S11303D08FEEA3DE81E090E0FBDEB82E80E090E0BB
S11303E0F7DE2B2D30E0322F2227282BF701219323
S11303F031937F0187DE0C151D05F1F6EBE3F3E085
S113040089819A81978B868B8B819C81918F808F38
S11304108D819E81938F828F8F819885958F848F14
S113042089859A85978F868F8B859C8591A380A3D8
S11304308D859E8593A382A38F85988995A384A394
S113044089899A8993A782A78B899C8995A784A770
S11304508D899E8997A786A766960FB6F894DEBF06
S11304600FBECDBFDF91CF911F910F91FF90EF9001
S1130470DF90CF90BF900895E0E9F0E02081922BC7
S1130480908399B1892B89B98AB188618AB9E5E9E0
S1130490F0E080818660808308955D9BFECF96D2D4
S11304A06CB90895AF92BF92CF92DF92EF92FF9210
S11304B00F931F93CF93DF93CDB7DEB7C15CD10900
S11304C00FB6F894DEBF0FBECDBF8FEF8ABB86E0B8
S11304D087BB8AE0E3E6F2E0DE01119601900D921B
S11304E08A95E1F785E1EDE6F2E0DE011B960190E5
S11304F00D928A95E1F781E2E2E8F2E0DE0190965E
S113050001900D928A95E1F78AE3E3EAF2E0DE01D5
S1130510AF5BBF4F01900D928A95E1F787E4EDED53
S1130520F2E0DE01A558BF4F01900D928A95E1F7E4
S113053083E390E0A1DF0F2EFBE3AF2EF3E0BF2EA9
S1130540F02DCC24C394D12C0F2EFAE0EF2EF12CF5
S1130550F02D16DFF501D182C082AADECB01B701EE
S113056052D38B01072E000C880B990B5DD295DFBB
S113057087EA91E60197F1F700C00000B09989C0BD
S1130580083211050CF49DC186E088BB9FE3EDE0C1
S1130590F3E09150E040F040E1F700C000005D9BC3
S11305A0FECF9E012F5F3F4F80E090E0D9010BC04A
S11305B0F90141919F014CB9E7EAF1E63197F1F76E
S11305C000C000000196FD0101900020E9F7319779
S11305D0EA1BFB0B8E179F0758F38DE08CB9FFE7DE
S11305E024E88EE1F15020408040E1F700C0000093
S11305F09E01255F3F4F80E090E0D9010BC0F901D7
S113060041919F014CB9E7EAF1E63197F1F700C057
S113061000000196FD0101900020E9F73197EA1BE3
S1130620FB0B8E179F0758F38DE08CB9FFE724E886
S11306308EE1F15020408040E1F700C000009E01AF
S113064025583F4F80E090E0D9010BC0F90141915A
S11306509F014CB9E7EAF1E63197F1F700C00000D9
S11306600196FD0101900020E9F73197EA1BFB0B8D
S11306708E179F0758F38DE08CB98AE18CB9FFE798
S113068024E88EE1F15020408040E1F700C00000F2
S11306901BC1B09985C082E088BB9FE3EDE0F3E025
S11306A09150E040F040E1F700C000005D9BFECFB8
S11306B09E012F5F3F4F80E090E0D9010BC0F9010C
S11306C041919F014CB9E7EAF1E63197F1F700C097
S11306D000000196FD0101900020E9F73197EA1B23
S11306E0FB0B8E179F0758F38DE08CB9FFE724E8C6
S11306F08EE1F15020408040E1F700C000009E01EF
S1130700255F3F4F80E090E0D9010BC0F901419192
S11307109F014CB9E7EAF1E63197F1F700C0000018
S11307200196FD0101900020E9F73197EA1BFB0BCC
S11307308E179F0758F38DE08CB9FFE724E88EE10C
S1130740F15020408040E1F700C000009E01205E8F
S11307503F4F80E090E0D9010BC0F90141919F0126
S11307604CB9E7EAF1E63197F1F700C000000196D1
S1130770FD0101900020E9F73197EA1BFB0B8E176E
S11307809F0758F38DE08CB98AE18CB9FFE724E820
S11307908EE1F15020408040E1F700C0000094C099
S11307A0083211050CF485C084E088BB9FE3EDE0BA
S11307B0F3E09150E040F040E1F700C000005D9BA1
S11307C0FECF9E012F5F3F4F80E090E0D9010BC028
S11307D0F90141919F014CB9E7EAF1E63197F1F74C
S11307E000C000000196FD0101900020E9F7319757
S11307F0EA1BFB0B8E179F0758F38DE08CB9FFE7BC
S113080024E88EE1F15020408040E1F700C0000070
S11308109E01255F3F4F80E090E0D9010BC0F901B4
S113082041919F014CB9E7EAF1E63197F1F700C035
S113083000000196FD0101900020E9F73197EA1BC1
S1130840FB0B8E179F0758F38DE08CB9FFE724E864
S11308508EE1F15020408040E1F700C000009E018D
S11308602F5B3F4F80E090E0D9010BC0F90141912B
S11308709F014CB9E7EAF1E63197F1F700C00000B7
S11308800196FD0101900020E9F73197EA1BFB0B6B
S11308908E179F0758F38DE08CB98AE18CB9FFE776
S11308A024E88EE1F15020408040E1F700C00000D0
S11308B00BC018BAE7EAF1E63197F1F700C000007F
S11308C048CEB099F6CFE7CE18BA80E090E0CF5387
S11308D0DF4F0FB6F894DEBF0FBECDBFDF91CF91CF
S11308E01F910F91FF90EF90DF90CF90BF90AF904A
S11308F008950CD0EBC0E3D040F0DAD030F021F40E
S11309005F3F19F0CCC0511115C1CFC0F0D098F39E
S11309109923C9F35523B1F3951B550BBB27AA277C
S113092062177307840738F09F5F5F4F220F331FEE
S1130930441FAA1FA9F333D00E2E3AF0E0E830D0BA
S113094091505040E695001CCAF729D0FE2F27D0BD
S1130950660F771F881FBB1F261737074807AB078B
S1130960B0E809F0BB0B802DBF01FF2793585F4F00
S11309702AF09E3F510568F092C0DCC05F3FECF363
S1130980983EDCF3869577956795B795F7959F5FC5
S1130990C9F7880F911D9695879597F90895E1E019
S11309A0660F771F881FBB1F621773078407BA0778
S11309B020F0621B730B840BBA0BEE1F88F7E095D3
S11309C0089504D06894B111B5C0089598D088F002
S11309D09F5790F0B92F9927B751A0F0D1F0660F27
S11309E0771F881F991F1AF0BA95C9F712C0B13042
S11309F081F09FD0B1E008959CC0672F782F88279D
S1130A00B85F39F0B93FCCF3869577956795B39580
S1130A10D9F73EF490958095709561957F4F8F4FEF
S1130A209F4F0895E89409C097FB3EF490958095F4
S1130A30709561957F4F8F4F9F4F9923A9F0F92FA0
S1130A4096E9BB279395F695879577956795B7951E
S1130A50F111F8CFFAF4BB0F11F460FF1BC06F5F04
S1130A607F4F8F4F9F4F16C0882311F096E911C016
S1130A70772321F09EE8872F762F05C0662371F037
S1130A8096E8862F70E060E02AF09A95660F771F4B
S1130A90881FDAF7880F9695879597F9089597F93F
S1130AA09F6780E870E060E008959FEF80EC089510
S1130AB000240A9416161706180609060895002439
S1130AC00A9412161306140605060895092E0394B3
S1130AD0000C11F4882352F0BB0F40F4BF2B11F427
S1130AE060FF04C06F5F7F4F8F4F9F4F089557FD86
S1130AF09058440F551F59F05F3F71F04795880F88
S1130B0097FB991F61F09F3F79F08795089512161E
S1130B1013061406551FF2CF4695F1DF08C01616CA
S1130B2017061806991FF1CF86957105610508947B
S1130B300895E894BB2766277727CB0197F9089592
S1130B400BD0C4CFB5DF28F0BADF18F0952309F035
S1130B50A6CFABCF1124EECFCADFA0F3959FD1F37C
S1130B60950F50E0551F629FF001729FBB27F00D57
S1130B70B11D639FAA27F00DB11DAA1F649F6627AC
S1130B80B00DA11D661F829F2227B00DA11D621FFB
S1130B90739FB00DA11D621F839FA00D611D221FB5
S1130BA0749F3327A00D611D231F849F600D211D99
S1130BB0822F762F6A2F11249F5750408AF0E1F03C
S1130BC088234AF0EE0FFF1FBB1F661F771F881F85
S1130BD091505040A9F79E3F510570F060CFAACFC5
S1130BE05F3FECF3983EDCF3869577956795B79570
S1130BF0F795E7959F5FC1F7FE2B880F911D96959A
S1130C00879597F9089597FB072E16F4009406D05C
S1130C1077FD08D015D007FC05D03EF4909581955A
S1130C209F4F0895709561957F4F08951DD0A59F9E
S1130C30900DB49F900DA49F800D911D11240895D3
S1130C40AA1BBB1B51E107C0AA1FBB1FA617B707EE
S1130C5010F0A61BB70B881F991F5A95A9F780950A
S1130C609095BC01CD010895A29FB001B39FC0012E
S1130C70A39F700D811D1124911DB29F700D811DC4
S1130C801124911D0895CF93DF93CDB7DEB7AE0144
S1130C904B5F5F4FFA0161917191AF0180916D03D8
S1130CA090916E0333D0DF91CF9108950F931F93EA
S1130CB0CF93DF93E0916D03F0916E03238121FFC5
S1130CC01BC08C01D0E0C0E0F80181918F016091DC
S1130CD06D0370916E03DB011896ED91FC911997E9
S1130CE0882331F00995892B79F3DFEFCFEFECCF2F
S1130CF08AE00995892B19F08FEF9FEF02C08D2FA1
S1130D009C2FDF91CF911F910F9108952F923F92C5
S1130D104F925F926F927F928F929F92AF92BF9207
S1130D20CF92DF92EF92FF920F931F93CF93DF93B3
S1130D30CDB7DEB72B970FB6F894DEBF0FBECDBF8D
S1130D406C017B018A01FC0117821682838181FF79
S1130D50BFC1CE0101963C01F6019381F70193FDD9
S1130D60859193FF81917F01882309F4ADC1853278
S1130D7039F493FD859193FF81917F01853221F4AC
S1130D80B60190E0D6D1E8CF912C212C312CFFE193
S1130D90F315D8F08B3279F038F4803279F083325D
S1130DA0A1F4232D20611DC08D3261F0803369F4DC
S1130DB0232D216016C0832D8260382EE32DE4603C
S1130DC03E2E2AC0F32DF8601DC037FC2DC020ED47
S1130DD0280F2A3040F08E32B9F436FC75C1232D29
S1130DE02064322E19C036FE06C08AE0989E200D7B
S1130DF01124922E11C0EAE02E9E200D1124222EE1
S1130E00F32DF0623F2E08C08C3621F4832D8068C8
S1130E10382E02C0883641F4F70193FD859193FF83
S1130E2081917F018111B3CF982F9F7D9554933089
S1130E3028F40C5F1F4F9FE399830DC0833631F074
S1130E40833771F0833509F055C020C0F8018081E3
S1130E5089830E5F1F4F88248394912C530112C001
S1130E602801F2E04F0E511CF801A080B18036FE3B
S1130E7003C0692D70E002C06FEF7FEFC5014ED152
S1130E804C018201F32DFF773F2E15C0280122E08B
S1130E90420E511CF801A080B18036FE03C0692DBA
S1130EA070E002C06FEF7FEFC5012DD14C01F32D2F
S1130EB0F0683F2E820133FC19C0822D90E0881621
S1130EC09906A0F4B60180E290E033D12A94F5CFDC
S1130ED0F50137FC859137FE81915F01B60190E001
S1130EE028D121102A9421E0821A910881149104B6
S1130EF079F7E1C0843611F0893639F5F80137FE07
S1130F0007C060817181828193810C5F1F4F08C08B
S1130F1060817181072E000C880B990B0E5F1F4FA7
S1130F20F32DFF763F2E97FF09C09095809570951D
S1130F3061957F4F8F4F9F4FF0683F2E2AE030E03E
S1130F40A30133D1882E861844C0853731F4232D6C
S1130F502F7EB22E2AE030E025C0932D997FB92E42
S1130F608F36C1F018F4883579F0AEC0803719F0A7
S1130F70883721F0A9C0E92FE061BE2EB4FE0DC070
S1130F80FB2DF460BF2E09C034FE0AC0292F266051
S1130F90B22E06C028E030E005C020E130E002C0F7
S1130FA020E132E0F801B7FE07C0608171818281DF
S1130FB093810C5F1F4F06C06081718180E090E0D7
S1130FC00E5F1F4FA301F1D0882E8618FB2DFF77EB
S1130FD03F2E36FE0DC0232D2E7FA22E891458F4E9
S1130FE034FE0BC032FC09C0832D8E7EA82E05C0B2
S1130FF0B82CA32C03C0B82C01C0B92CA4FE0FC07C
S1131000FE01E80DF11D8081803321F49A2D997E33
S1131010A92E09C0A2FE06C0B394B39404C08A2DBD
S1131020867809F0B394A3FC10C0A0FE06C0B214E5
S113103080F4280C922C9B180DC0B21458F4B601FD
S113104080E290E076D0B394F8CFB21418F42B1861
S113105002C0982C212CA4FE0FC0B60180E390E0BE
S113106068D0A2FE16C0A1FC03C088E790E002C0CD
S113107088E590E0B6010CC08A2D867851F0A1FE77
S113108002C08BE201C080E2A7FC8DE2B60190E0D1
S113109050D0891430F4B60180E390E04AD09A9499
S11310A0F8CF8A94F301E80DF11D8081B60190E038
S11310B040D08110F6CF222009F44ECEB60180E252
S11310C090E037D02A94F7CFF6018681978102C049
S11310D08FEF9FEF2B960FB6F894DEBF0FBECDBFF8
S11310E0DF91CF911F910F91FF90EF90DF90CF9000
S11310F0BF90AF909F908F907F906F905F904F9034
S11311003F902F900895FC010590615070400110AC
S1131110D8F7809590958E0F9F1F0895FC0161501C
S1131120704001900110D8F7809590958E0F9F1F05
S113113008950F931F93CF93DF93FB01238121FD28
S113114003C08FEF9FEF2CC022FF16C0468157814A
S1131150248135814217530744F4A081B1819D0154
S11311602F5F3F4F318320838C93268137812F5FFC
S11311703F4F3783268314C08B01EC01FB010084AD
S1131180F185E02D0995892BE1F6D80116968D910C
S11311909C911797019617969C938E931697CE0160
S11311A0DF91CF911F910F910895FA01AA2728305A
S11311B051F1203181F1E8946F936E7F6E5F7F4F20
S11311C08F4F9F4FAF4FB1E03ED0B4E03CD0670F9C
S11311D0781F891F9A1FA11D680F791F8A1F911DEF
S11311E0A11D6A0F711D811D911DA11D20D009F43F
S11311F068943F912AE0269F11243019305D319381
S1131200DEF6CF010895462F4770405D4193B3E069
S11312100FD0C9F7F6CF462F4F70405D4A3318F010
S1131220495D31FD4052419302D0A9F7EACFB4E0C1
S1131230A6959795879577956795BA95C9F7009779
S11312406105710508959B01AC010A2E069457951A
S1131250479537952795BA95C9F7620F731F841F71
S10D1260951FA01D0895F894FFCF18
S113126A5B496E666F5D09537461727420636F6EB5
S113127A646974696F6E2073656E642026207761D1
S113128A6974696E6720666F722061636B2E2E2EF5
S113129A20005B537563636573735D0941636B2057
S11312AA686173206265656E207265636569766537
S11312BA642E005B496E666F5D095472616E736DCC
S11312CA697373696F6E20686173206265656E2045
S11312DA656E6465642E005B496E666F5D094164E0
S11312EA6472657373202523303278206861732011
S11312FA6265656E2073656E742E20576169746920
S113130A6E6720666F722061636B2E2E2E200A0090
S113131A5B537563636573735D0941636B2068612D
S113132A73206265656E2072656365697665642EED
S113133A20005B496E666F5D0953656E64696E676A
S113134A206461746120282523303278292E0A000A
S113135A5B537563636573735D09446174612073D8
S113136A656E742E2057616974696E6720666F72A0
S113137A2061636B2E2E2E20005B496E666F5D0919
S113138A52656164696E6720646174612E2E2E0051
S113139A5B537563636573735D09446174612028E3
S11313AA25233032782920686173206265656E20AE
S11313BA72656164207375636365737366756C79AA
S11313CA2E0A0041542B434D47463D310041542BCC
S11313DA434D47533D223633353536333037303172
S11313EA22006761732073656E736F72206861737C
S11313FA20646574656374656420736D6F6B65201E
S113140A21210074656D706572617475726520734B
S113141A656E736F722068617320646574656374A2
S113142A65642064616E6765726F75736C79206890
S113143A6967682076616C75657321210048756750
S113144A652073757370656374696F6E206F6620A7
S113145A666972652062706F7468206761732061BF
S113146A6E642074656D702073656E736F72732079
S113147A6861766520206265656E206465746563BB
S113148A74656400ABAAADACAFAEB1B0B3B2B5B4D7
S10D149AB7B6B9B8BBBABDBCBFBEFB
S9030000FC
