S013000063616C6C696E67636F64652E737265639C
S113000045C000004BC0000049C0000047C00000CC
S113001045C0000043C0000041C000003FC00000D4
S11300203DC000003BC0000039C0000037C00000E4
S113003035C0000033C0000031C000002FC00000F4
S11300402DC000002BC0000029C0000027C0000004
S113005025C0000023C0000021C000001FC0000014
S11300601DC000001BC0000019C0000017C0000024
S113007015C0000013C0000011C000000FC0000034
S11300800DC000000BC0000009C0000011241FBEF9
S1130090CFEFD0E1DEBFCDBF1BD02BC0B1CFE0E9A5
S11300A0F0E02081922B908399B1892B89B98AB190
S11300B088618AB9E5E9F0E08081866080830895EB
S11300C05D9BFECF8CB908955F9BFECF8CB10895E4
S11300D083E390E0E4DFF8DFC82F8C2FF1DF2FE318
S11300E08DE093E0215080409040E1F700C0000093
S10900F0F4CFF894FFCFE9
S9030000FC
